{
  "_format": "hh-sol-artifact-1",
  "contractName": "MyMusicNFT",
  "sourceName": "contracts/MyMusicNFT.sol",
  "abi": [
    {
      "inputs": [],
      "stateMutability": "nonpayable",
      "type": "constructor"
    },
    {
      "anonymous": false,
      "inputs": [
        {
          "indexed": true,
          "internalType": "address",
          "name": "owner",
          "type": "address"
        },
        {
          "indexed": true,
          "internalType": "address",
          "name": "approved",
          "type": "address"
        },
        {
          "indexed": true,
          "internalType": "uint256",
          "name": "tokenId",
          "type": "uint256"
        }
      ],
      "name": "Approval",
      "type": "event"
    },
    {
      "anonymous": false,
      "inputs": [
        {
          "indexed": true,
          "internalType": "address",
          "name": "owner",
          "type": "address"
        },
        {
          "indexed": true,
          "internalType": "address",
          "name": "operator",
          "type": "address"
        },
        {
          "indexed": false,
          "internalType": "bool",
          "name": "approved",
          "type": "bool"
        }
      ],
      "name": "ApprovalForAll",
      "type": "event"
    },
    {
      "anonymous": false,
      "inputs": [
        {
          "indexed": false,
          "internalType": "address",
          "name": "sender",
          "type": "address"
        },
        {
          "indexed": false,
          "internalType": "uint256",
          "name": "tokenId",
          "type": "uint256"
        }
      ],
      "name": "NewMusicNFTMinted",
      "type": "event"
    },
    {
      "anonymous": false,
      "inputs": [
        {
          "indexed": true,
          "internalType": "address",
          "name": "from",
          "type": "address"
        },
        {
          "indexed": true,
          "internalType": "address",
          "name": "to",
          "type": "address"
        },
        {
          "indexed": true,
          "internalType": "uint256",
          "name": "tokenId",
          "type": "uint256"
        }
      ],
      "name": "Transfer",
      "type": "event"
    },
    {
      "inputs": [
        {
          "internalType": "address",
          "name": "to",
          "type": "address"
        },
        {
          "internalType": "uint256",
          "name": "tokenId",
          "type": "uint256"
        }
      ],
      "name": "approve",
      "outputs": [],
      "stateMutability": "nonpayable",
      "type": "function"
    },
    {
      "inputs": [
        {
          "internalType": "address",
          "name": "owner",
          "type": "address"
        }
      ],
      "name": "balanceOf",
      "outputs": [
        {
          "internalType": "uint256",
          "name": "",
          "type": "uint256"
        }
      ],
      "stateMutability": "view",
      "type": "function"
    },
    {
      "inputs": [
        {
          "internalType": "uint256",
          "name": "tokenId",
          "type": "uint256"
        }
      ],
      "name": "getApproved",
      "outputs": [
        {
          "internalType": "address",
          "name": "",
          "type": "address"
        }
      ],
      "stateMutability": "view",
      "type": "function"
    },
    {
      "inputs": [
        {
          "internalType": "address",
          "name": "owner",
          "type": "address"
        },
        {
          "internalType": "address",
          "name": "operator",
          "type": "address"
        }
      ],
      "name": "isApprovedForAll",
      "outputs": [
        {
          "internalType": "bool",
          "name": "",
          "type": "bool"
        }
      ],
      "stateMutability": "view",
      "type": "function"
    },
    {
      "inputs": [
        {
          "internalType": "string",
          "name": "finalTokenUri",
          "type": "string"
        }
      ],
      "name": "makeMusicNFT",
      "outputs": [],
      "stateMutability": "nonpayable",
      "type": "function"
    },
    {
      "inputs": [],
      "name": "name",
      "outputs": [
        {
          "internalType": "string",
          "name": "",
          "type": "string"
        }
      ],
      "stateMutability": "view",
      "type": "function"
    },
    {
      "inputs": [
        {
          "internalType": "uint256",
          "name": "tokenId",
          "type": "uint256"
        }
      ],
      "name": "ownerOf",
      "outputs": [
        {
          "internalType": "address",
          "name": "",
          "type": "address"
        }
      ],
      "stateMutability": "view",
      "type": "function"
    },
    {
      "inputs": [
        {
          "internalType": "address",
          "name": "from",
          "type": "address"
        },
        {
          "internalType": "address",
          "name": "to",
          "type": "address"
        },
        {
          "internalType": "uint256",
          "name": "tokenId",
          "type": "uint256"
        }
      ],
      "name": "safeTransferFrom",
      "outputs": [],
      "stateMutability": "nonpayable",
      "type": "function"
    },
    {
      "inputs": [
        {
          "internalType": "address",
          "name": "from",
          "type": "address"
        },
        {
          "internalType": "address",
          "name": "to",
          "type": "address"
        },
        {
          "internalType": "uint256",
          "name": "tokenId",
          "type": "uint256"
        },
        {
          "internalType": "bytes",
          "name": "_data",
          "type": "bytes"
        }
      ],
      "name": "safeTransferFrom",
      "outputs": [],
      "stateMutability": "nonpayable",
      "type": "function"
    },
    {
      "inputs": [
        {
          "internalType": "address",
          "name": "operator",
          "type": "address"
        },
        {
          "internalType": "bool",
          "name": "approved",
          "type": "bool"
        }
      ],
      "name": "setApprovalForAll",
      "outputs": [],
      "stateMutability": "nonpayable",
      "type": "function"
    },
    {
      "inputs": [
        {
          "internalType": "bytes4",
          "name": "interfaceId",
          "type": "bytes4"
        }
      ],
      "name": "supportsInterface",
      "outputs": [
        {
          "internalType": "bool",
          "name": "",
          "type": "bool"
        }
      ],
      "stateMutability": "view",
      "type": "function"
    },
    {
      "inputs": [],
      "name": "symbol",
      "outputs": [
        {
          "internalType": "string",
          "name": "",
          "type": "string"
        }
      ],
      "stateMutability": "view",
      "type": "function"
    },
    {
      "inputs": [
        {
          "internalType": "uint256",
          "name": "tokenId",
          "type": "uint256"
        }
      ],
      "name": "tokenURI",
      "outputs": [
        {
          "internalType": "string",
          "name": "",
          "type": "string"
        }
      ],
      "stateMutability": "view",
      "type": "function"
    },
    {
      "inputs": [
        {
          "internalType": "address",
          "name": "from",
          "type": "address"
        },
        {
          "internalType": "address",
          "name": "to",
          "type": "address"
        },
        {
          "internalType": "uint256",
          "name": "tokenId",
          "type": "uint256"
        }
      ],
      "name": "transferFrom",
      "outputs": [],
      "stateMutability": "nonpayable",
      "type": "function"
    }
  ],
  "bytecode": "0x60806040523480156200001157600080fd5b506040518060400160405280600281526020017f41490000000000000000000000000000000000000000000000000000000000008152506040518060400160405280600281526020017f4149000000000000000000000000000000000000000000000000000000000000815250816000908051906020019062000096929190620001cf565b508060019080519060200190620000af929190620001cf565b505050620000fd6040518060400160405280601e81526020017f54686973206973206d79204e465420636f6e74726163742e20576f61682100008152506200010360201b62000bef1760201c565b620003ac565b620001a3816040516024016200011a9190620002c0565b6040516020818303038152906040527f41304fac000000000000000000000000000000000000000000000000000000007bffffffffffffffffffffffffffffffffffffffffffffffffffffffff19166020820180517bffffffffffffffffffffffffffffffffffffffffffffffffffffffff8381831617835250505050620001a660201b60201c565b50565b60008151905060006a636f6e736f6c652e6c6f679050602083016000808483855afa5050505050565b828054620001dd9062000336565b90600052602060002090601f0160209004810192826200020157600085556200024d565b82601f106200021c57805160ff19168380011785556200024d565b828001600101855582156200024d579182015b828111156200024c5782518255916020019190600101906200022f565b5b5090506200025c919062000260565b5090565b5b808211156200027b57600081600090555060010162000261565b5090565b60006200028c82620002e4565b620002988185620002ef565b9350620002aa81856020860162000300565b620002b5816200039b565b840191505092915050565b60006020820190508181036000830152620002dc81846200027f565b905092915050565b600081519050919050565b600082825260208201905092915050565b60005b838110156200032057808201518184015260208101905062000303565b8381111562000330576000848401525b50505050565b600060028204905060018216806200034f57607f821691505b602082108114156200036657620003656200036c565b5b50919050565b7f4e487b7100000000000000000000000000000000000000000000000000000000600052602260045260246000fd5b6000601f19601f8301169050919050565b612d9f80620003bc6000396000f3fe608060405234801561001057600080fd5b50600436106100ea5760003560e01c806370a082311161008c578063a22cb46511610066578063a22cb4651461025b578063b88d4fde14610277578063c87b56dd14610293578063e985e9c5146102c3576100ea565b806370a08231146101f157806388c1082c1461022157806395d89b411461023d576100ea565b8063095ea7b3116100c8578063095ea7b31461016d57806323b872dd1461018957806342842e0e146101a55780636352211e146101c1576100ea565b806301ffc9a7146100ef57806306fdde031461011f578063081812fc1461013d575b600080fd5b61010960048036038101906101049190611e66565b6102f3565b6040516101169190612694565b60405180910390f35b6101276103d5565b60405161013491906126af565b60405180910390f35b61015760048036038101906101529190611ef9565b610467565b6040516101649190612604565b60405180910390f35b61018760048036038101906101829190611e2a565b6104ec565b005b6101a3600480360381019061019e9190611d24565b610604565b005b6101bf60048036038101906101ba9190611d24565b610664565b005b6101db60048036038101906101d69190611ef9565b610684565b6040516101e89190612604565b60405180910390f35b61020b60048036038101906102069190611cbf565b610736565b604051610218919061290f565b60405180910390f35b61023b60048036038101906102369190611eb8565b6107ee565b005b6102456108ff565b60405161025291906126af565b60405180910390f35b61027560048036038101906102709190611dee565b610991565b005b610291600480360381019061028c9190611d73565b6109a7565b005b6102ad60048036038101906102a89190611ef9565b610a09565b6040516102ba91906126af565b60405180910390f35b6102dd60048036038101906102d89190611ce8565b610b5b565b6040516102ea9190612694565b60405180910390f35b60007f80ac58cd000000000000000000000000000000000000000000000000000000007bffffffffffffffffffffffffffffffffffffffffffffffffffffffff1916827bffffffffffffffffffffffffffffffffffffffffffffffffffffffff191614806103be57507f5b5e139f000000000000000000000000000000000000000000000000000000007bffffffffffffffffffffffffffffffffffffffffffffffffffffffff1916827bffffffffffffffffffffffffffffffffffffffffffffffffffffffff1916145b806103ce57506103cd82610c88565b5b9050919050565b6060600080546103e490612b6f565b80601f016020809104026020016040519081016040528092919081815260200182805461041090612b6f565b801561045d5780601f106104325761010080835404028352916020019161045d565b820191906000526020600020905b81548152906001019060200180831161044057829003601f168201915b5050505050905090565b600061047282610cf2565b6104b1576040517f08c379a00000000000000000000000000000000000000000000000000000000081526004016104a89061286f565b60405180910390fd5b6004600083815260200190815260200160002060009054906101000a900473ffffffffffffffffffffffffffffffffffffffff169050919050565b60006104f782610684565b90508073ffffffffffffffffffffffffffffffffffffffff168373ffffffffffffffffffffffffffffffffffffffff161415610568576040517f08c379a000000000000000000000000000000000000000000000000000000000815260040161055f906128cf565b60405180910390fd5b8073ffffffffffffffffffffffffffffffffffffffff16610587610d5e565b73ffffffffffffffffffffffffffffffffffffffff1614806105b657506105b5816105b0610d5e565b610b5b565b5b6105f5576040517f08c379a00000000000000000000000000000000000000000000000000000000081526004016105ec906127af565b60405180910390fd5b6105ff8383610d66565b505050565b61061561060f610d5e565b82610e1f565b610654576040517f08c379a000000000000000000000000000000000000000000000000000000000815260040161064b906128ef565b60405180910390fd5b61065f838383610efd565b505050565b61067f838383604051806020016040528060008152506109a7565b505050565b6000806002600084815260200190815260200160002060009054906101000a900473ffffffffffffffffffffffffffffffffffffffff169050600073ffffffffffffffffffffffffffffffffffffffff168173ffffffffffffffffffffffffffffffffffffffff16141561072d576040517f08c379a0000000000000000000000000000000000000000000000000000000008152600401610724906127ef565b60405180910390fd5b80915050919050565b60008073ffffffffffffffffffffffffffffffffffffffff168273ffffffffffffffffffffffffffffffffffffffff1614156107a7576040517f08c379a000000000000000000000000000000000000000000000000000000000815260040161079e906127cf565b60405180910390fd5b600360008373ffffffffffffffffffffffffffffffffffffffff1673ffffffffffffffffffffffffffffffffffffffff168152602001908152602001600020549050919050565b60006107fa6007611159565b905061083a6040518060400160405280601581526020017f0a2d2d2d2d2d2d2d2d2d2d2d2d2d2d2d2d2d2d2d2d0000000000000000000000815250610bef565b61084382610bef565b6108816040518060400160405280601581526020017f2d2d2d2d2d2d2d2d2d2d2d2d2d2d2d2d2d2d2d2d0a0000000000000000000000815250610bef565b61088b3382611167565b6108958183611185565b61089f60076111f9565b6108c2604051806060016040528060258152602001612d4560259139823361120f565b7f43eb59f59d227687cb3c771feddbb640752d91414390f4d9a1658e8a25b0ecfd33826040516108f392919061266b565b60405180910390a15050565b60606001805461090e90612b6f565b80601f016020809104026020016040519081016040528092919081815260200182805461093a90612b6f565b80156109875780601f1061095c57610100808354040283529160200191610987565b820191906000526020600020905b81548152906001019060200180831161096a57829003601f168201915b5050505050905090565b6109a361099c610d5e565b83836112ae565b5050565b6109b86109b2610d5e565b83610e1f565b6109f7576040517f08c379a00000000000000000000000000000000000000000000000000000000081526004016109ee906128ef565b60405180910390fd5b610a038484848461141b565b50505050565b6060610a1482610cf2565b610a53576040517f08c379a0000000000000000000000000000000000000000000000000000000008152600401610a4a9061284f565b60405180910390fd5b6000600660008481526020019081526020016000208054610a7390612b6f565b80601f0160208091040260200160405190810160405280929190818152602001828054610a9f90612b6f565b8015610aec5780601f10610ac157610100808354040283529160200191610aec565b820191906000526020600020905b815481529060010190602001808311610acf57829003601f168201915b505050505090506000610afd611477565b9050600081511415610b13578192505050610b56565b600082511115610b48578082604051602001610b309291906125e0565b60405160208183030381529060405292505050610b56565b610b518461148e565b925050505b919050565b6000600560008473ffffffffffffffffffffffffffffffffffffffff1673ffffffffffffffffffffffffffffffffffffffff16815260200190815260200160002060008373ffffffffffffffffffffffffffffffffffffffff1673ffffffffffffffffffffffffffffffffffffffff16815260200190815260200160002060009054906101000a900460ff16905092915050565b610c8581604051602401610c0391906126af565b6040516020818303038152906040527f41304fac000000000000000000000000000000000000000000000000000000007bffffffffffffffffffffffffffffffffffffffffffffffffffffffff19166020820180517bffffffffffffffffffffffffffffffffffffffffffffffffffffffff8381831617835250505050611535565b50565b60007f01ffc9a7000000000000000000000000000000000000000000000000000000007bffffffffffffffffffffffffffffffffffffffffffffffffffffffff1916827bffffffffffffffffffffffffffffffffffffffffffffffffffffffff1916149050919050565b60008073ffffffffffffffffffffffffffffffffffffffff166002600084815260200190815260200160002060009054906101000a900473ffffffffffffffffffffffffffffffffffffffff1673ffffffffffffffffffffffffffffffffffffffff1614159050919050565b600033905090565b816004600083815260200190815260200160002060006101000a81548173ffffffffffffffffffffffffffffffffffffffff021916908373ffffffffffffffffffffffffffffffffffffffff160217905550808273ffffffffffffffffffffffffffffffffffffffff16610dd983610684565b73ffffffffffffffffffffffffffffffffffffffff167f8c5be1e5ebec7d5bd14f71427d1e84f3dd0314c0f7b2291e5b200ac8c7c3b92560405160405180910390a45050565b6000610e2a82610cf2565b610e69576040517f08c379a0000000000000000000000000000000000000000000000000000000008152600401610e609061278f565b60405180910390fd5b6000610e7483610684565b90508073ffffffffffffffffffffffffffffffffffffffff168473ffffffffffffffffffffffffffffffffffffffff161480610ee357508373ffffffffffffffffffffffffffffffffffffffff16610ecb84610467565b73ffffffffffffffffffffffffffffffffffffffff16145b80610ef45750610ef38185610b5b565b5b91505092915050565b8273ffffffffffffffffffffffffffffffffffffffff16610f1d82610684565b73ffffffffffffffffffffffffffffffffffffffff1614610f73576040517f08c379a0000000000000000000000000000000000000000000000000000000008152600401610f6a9061288f565b60405180910390fd5b600073ffffffffffffffffffffffffffffffffffffffff168273ffffffffffffffffffffffffffffffffffffffff161415610fe3576040517f08c379a0000000000000000000000000000000000000000000000000000000008152600401610fda9061274f565b60405180910390fd5b610fee83838361155e565b610ff9600082610d66565b6001600360008573ffffffffffffffffffffffffffffffffffffffff1673ffffffffffffffffffffffffffffffffffffffff16815260200190815260200160002060008282546110499190612a85565b925050819055506001600360008473ffffffffffffffffffffffffffffffffffffffff1673ffffffffffffffffffffffffffffffffffffffff16815260200190815260200160002060008282546110a091906129fe565b92505081905550816002600083815260200190815260200160002060006101000a81548173ffffffffffffffffffffffffffffffffffffffff021916908373ffffffffffffffffffffffffffffffffffffffff160217905550808273ffffffffffffffffffffffffffffffffffffffff168473ffffffffffffffffffffffffffffffffffffffff167fddf252ad1be2c89b69c2b068fc378daa952ba7f163c4a11628f55a4df523b3ef60405160405180910390a4505050565b600081600001549050919050565b611181828260405180602001604052806000815250611563565b5050565b61118e82610cf2565b6111cd576040517f08c379a00000000000000000000000000000000000000000000000000000000081526004016111c49061280f565b60405180910390fd5b806006600084815260200190815260200160002090805190602001906111f4929190611ae3565b505050565b6001816000016000828254019250508190555050565b6112a9838383604051602401611227939291906126d1565b6040516020818303038152906040527fe3849f79000000000000000000000000000000000000000000000000000000007bffffffffffffffffffffffffffffffffffffffffffffffffffffffff19166020820180517bffffffffffffffffffffffffffffffffffffffffffffffffffffffff8381831617835250505050611535565b505050565b8173ffffffffffffffffffffffffffffffffffffffff168373ffffffffffffffffffffffffffffffffffffffff16141561131d576040517f08c379a00000000000000000000000000000000000000000000000000000000081526004016113149061276f565b60405180910390fd5b80600560008573ffffffffffffffffffffffffffffffffffffffff1673ffffffffffffffffffffffffffffffffffffffff16815260200190815260200160002060008473ffffffffffffffffffffffffffffffffffffffff1673ffffffffffffffffffffffffffffffffffffffff16815260200190815260200160002060006101000a81548160ff0219169083151502179055508173ffffffffffffffffffffffffffffffffffffffff168373ffffffffffffffffffffffffffffffffffffffff167f17307eab39ab6107e8899845ad3d59bd9653f200f220920489ca2b5937696c318360405161140e9190612694565b60405180910390a3505050565b611426848484610efd565b611432848484846115be565b611471576040517f08c379a00000000000000000000000000000000000000000000000000000000081526004016114689061270f565b60405180910390fd5b50505050565b606060405180602001604052806000815250905090565b606061149982610cf2565b6114d8576040517f08c379a00000000000000000000000000000000000000000000000000000000081526004016114cf906128af565b60405180910390fd5b60006114e2611477565b90506000815111611502576040518060200160405280600081525061152d565b8061150c84611755565b60405160200161151d9291906125e0565b6040516020818303038152906040525b915050919050565b60008151905060006a636f6e736f6c652e6c6f679050602083016000808483855afa5050505050565b505050565b61156d8383611902565b61157a60008484846115be565b6115b9576040517f08c379a00000000000000000000000000000000000000000000000000000000081526004016115b09061270f565b60405180910390fd5b505050565b60006115df8473ffffffffffffffffffffffffffffffffffffffff16611ad0565b15611748578373ffffffffffffffffffffffffffffffffffffffff1663150b7a02611608610d5e565b8786866040518563ffffffff1660e01b815260040161162a949392919061261f565b602060405180830381600087803b15801561164457600080fd5b505af192505050801561167557506040513d601f19601f820116820180604052508101906116729190611e8f565b60015b6116f8573d80600081146116a5576040519150601f19603f3d011682016040523d82523d6000602084013e6116aa565b606091505b506000815114156116f0576040517f08c379a00000000000000000000000000000000000000000000000000000000081526004016116e79061270f565b60405180910390fd5b805181602001fd5b63150b7a0260e01b7bffffffffffffffffffffffffffffffffffffffffffffffffffffffff1916817bffffffffffffffffffffffffffffffffffffffffffffffffffffffff19161491505061174d565b600190505b949350505050565b6060600082141561179d576040518060400160405280600181526020017f300000000000000000000000000000000000000000000000000000000000000081525090506118fd565b600082905060005b600082146117cf5780806117b890612ba1565b915050600a826117c89190612a54565b91506117a5565b60008167ffffffffffffffff811115611811577f4e487b7100000000000000000000000000000000000000000000000000000000600052604160045260246000fd5b6040519080825280601f01601f1916602001820160405280156118435781602001600182028036833780820191505090505b5090505b600085146118f65760018261185c9190612a85565b9150600a8561186b9190612bea565b603061187791906129fe565b60f81b8183815181106118b3577f4e487b7100000000000000000000000000000000000000000000000000000000600052603260045260246000fd5b60200101907effffffffffffffffffffffffffffffffffffffffffffffffffffffffffffff1916908160001a905350600a856118ef9190612a54565b9450611847565b8093505050505b919050565b600073ffffffffffffffffffffffffffffffffffffffff168273ffffffffffffffffffffffffffffffffffffffff161415611972576040517f08c379a00000000000000000000000000000000000000000000000000000000081526004016119699061282f565b60405180910390fd5b61197b81610cf2565b156119bb576040517f08c379a00000000000000000000000000000000000000000000000000000000081526004016119b29061272f565b60405180910390fd5b6119c76000838361155e565b6001600360008473ffffffffffffffffffffffffffffffffffffffff1673ffffffffffffffffffffffffffffffffffffffff1681526020019081526020016000206000828254611a1791906129fe565b92505081905550816002600083815260200190815260200160002060006101000a81548173ffffffffffffffffffffffffffffffffffffffff021916908373ffffffffffffffffffffffffffffffffffffffff160217905550808273ffffffffffffffffffffffffffffffffffffffff16600073ffffffffffffffffffffffffffffffffffffffff167fddf252ad1be2c89b69c2b068fc378daa952ba7f163c4a11628f55a4df523b3ef60405160405180910390a45050565b600080823b905060008111915050919050565b828054611aef90612b6f565b90600052602060002090601f016020900481019282611b115760008555611b58565b82601f10611b2a57805160ff1916838001178555611b58565b82800160010185558215611b58579182015b82811115611b57578251825591602001919060010190611b3c565b5b509050611b659190611b69565b5090565b5b80821115611b82576000816000905550600101611b6a565b5090565b6000611b99611b948461295b565b61292a565b905082815260208101848484011115611bb157600080fd5b611bbc848285612b2d565b509392505050565b6000611bd7611bd28461298b565b61292a565b905082815260208101848484011115611bef57600080fd5b611bfa848285612b2d565b509392505050565b600081359050611c1181612ce8565b92915050565b600081359050611c2681612cff565b92915050565b600081359050611c3b81612d16565b92915050565b600081519050611c5081612d16565b92915050565b600082601f830112611c6757600080fd5b8135611c77848260208601611b86565b91505092915050565b600082601f830112611c9157600080fd5b8135611ca1848260208601611bc4565b91505092915050565b600081359050611cb981612d2d565b92915050565b600060208284031215611cd157600080fd5b6000611cdf84828501611c02565b91505092915050565b60008060408385031215611cfb57600080fd5b6000611d0985828601611c02565b9250506020611d1a85828601611c02565b9150509250929050565b600080600060608486031215611d3957600080fd5b6000611d4786828701611c02565b9350506020611d5886828701611c02565b9250506040611d6986828701611caa565b9150509250925092565b60008060008060808587031215611d8957600080fd5b6000611d9787828801611c02565b9450506020611da887828801611c02565b9350506040611db987828801611caa565b925050606085013567ffffffffffffffff811115611dd657600080fd5b611de287828801611c56565b91505092959194509250565b60008060408385031215611e0157600080fd5b6000611e0f85828601611c02565b9250506020611e2085828601611c17565b9150509250929050565b60008060408385031215611e3d57600080fd5b6000611e4b85828601611c02565b9250506020611e5c85828601611caa565b9150509250929050565b600060208284031215611e7857600080fd5b6000611e8684828501611c2c565b91505092915050565b600060208284031215611ea157600080fd5b6000611eaf84828501611c41565b91505092915050565b600060208284031215611eca57600080fd5b600082013567ffffffffffffffff811115611ee457600080fd5b611ef084828501611c80565b91505092915050565b600060208284031215611f0b57600080fd5b6000611f1984828501611caa565b91505092915050565b611f2b81612ab9565b82525050565b611f3a81612acb565b82525050565b6000611f4b826129bb565b611f5581856129d1565b9350611f65818560208601612b3c565b611f6e81612cd7565b840191505092915050565b6000611f84826129c6565b611f8e81856129e2565b9350611f9e818560208601612b3c565b611fa781612cd7565b840191505092915050565b6000611fbd826129c6565b611fc781856129f3565b9350611fd7818560208601612b3c565b80840191505092915050565b6000611ff06032836129e2565b91507f4552433732313a207472616e7366657220746f206e6f6e20455243373231526560008301527f63656976657220696d706c656d656e74657200000000000000000000000000006020830152604082019050919050565b6000612056601c836129e2565b91507f4552433732313a20746f6b656e20616c7265616479206d696e746564000000006000830152602082019050919050565b60006120966024836129e2565b91507f4552433732313a207472616e7366657220746f20746865207a65726f2061646460008301527f72657373000000000000000000000000000000000000000000000000000000006020830152604082019050919050565b60006120fc6019836129e2565b91507f4552433732313a20617070726f766520746f2063616c6c6572000000000000006000830152602082019050919050565b600061213c602c836129e2565b91507f4552433732313a206f70657261746f7220717565727920666f72206e6f6e657860008301527f697374656e7420746f6b656e00000000000000000000000000000000000000006020830152604082019050919050565b60006121a26038836129e2565b91507f4552433732313a20617070726f76652063616c6c6572206973206e6f74206f7760008301527f6e6572206e6f7220617070726f76656420666f7220616c6c00000000000000006020830152604082019050919050565b6000612208602a836129e2565b91507f4552433732313a2062616c616e636520717565727920666f7220746865207a6560008301527f726f2061646472657373000000000000000000000000000000000000000000006020830152604082019050919050565b600061226e6029836129e2565b91507f4552433732313a206f776e657220717565727920666f72206e6f6e657869737460008301527f656e7420746f6b656e00000000000000000000000000000000000000000000006020830152604082019050919050565b60006122d4602e836129e2565b91507f45524337323155524953746f726167653a2055524920736574206f66206e6f6e60008301527f6578697374656e7420746f6b656e0000000000000000000000000000000000006020830152604082019050919050565b600061233a6020836129e2565b91507f4552433732313a206d696e7420746f20746865207a65726f20616464726573736000830152602082019050919050565b600061237a6031836129e2565b91507f45524337323155524953746f726167653a2055524920717565727920666f722060008301527f6e6f6e6578697374656e7420746f6b656e0000000000000000000000000000006020830152604082019050919050565b60006123e0602c836129e2565b91507f4552433732313a20617070726f76656420717565727920666f72206e6f6e657860008301527f697374656e7420746f6b656e00000000000000000000000000000000000000006020830152604082019050919050565b60006124466029836129e2565b91507f4552433732313a207472616e73666572206f6620746f6b656e2074686174206960008301527f73206e6f74206f776e00000000000000000000000000000000000000000000006020830152604082019050919050565b60006124ac602f836129e2565b91507f4552433732314d657461646174613a2055524920717565727920666f72206e6f60008301527f6e6578697374656e7420746f6b656e00000000000000000000000000000000006020830152604082019050919050565b60006125126021836129e2565b91507f4552433732313a20617070726f76616c20746f2063757272656e74206f776e6560008301527f72000000000000000000000000000000000000000000000000000000000000006020830152604082019050919050565b60006125786031836129e2565b91507f4552433732313a207472616e736665722063616c6c6572206973206e6f74206f60008301527f776e6572206e6f7220617070726f7665640000000000000000000000000000006020830152604082019050919050565b6125da81612b23565b82525050565b60006125ec8285611fb2565b91506125f88284611fb2565b91508190509392505050565b60006020820190506126196000830184611f22565b92915050565b60006080820190506126346000830187611f22565b6126416020830186611f22565b61264e60408301856125d1565b81810360608301526126608184611f40565b905095945050505050565b60006040820190506126806000830185611f22565b61268d60208301846125d1565b9392505050565b60006020820190506126a96000830184611f31565b92915050565b600060208201905081810360008301526126c98184611f79565b905092915050565b600060608201905081810360008301526126eb8186611f79565b90506126fa60208301856125d1565b6127076040830184611f22565b949350505050565b6000602082019050818103600083015261272881611fe3565b9050919050565b6000602082019050818103600083015261274881612049565b9050919050565b6000602082019050818103600083015261276881612089565b9050919050565b60006020820190508181036000830152612788816120ef565b9050919050565b600060208201905081810360008301526127a88161212f565b9050919050565b600060208201905081810360008301526127c881612195565b9050919050565b600060208201905081810360008301526127e8816121fb565b9050919050565b6000602082019050818103600083015261280881612261565b9050919050565b60006020820190508181036000830152612828816122c7565b9050919050565b600060208201905081810360008301526128488161232d565b9050919050565b600060208201905081810360008301526128688161236d565b9050919050565b60006020820190508181036000830152612888816123d3565b9050919050565b600060208201905081810360008301526128a881612439565b9050919050565b600060208201905081810360008301526128c88161249f565b9050919050565b600060208201905081810360008301526128e881612505565b9050919050565b600060208201905081810360008301526129088161256b565b9050919050565b600060208201905061292460008301846125d1565b92915050565b6000604051905081810181811067ffffffffffffffff8211171561295157612950612ca8565b5b8060405250919050565b600067ffffffffffffffff82111561297657612975612ca8565b5b601f19601f8301169050602081019050919050565b600067ffffffffffffffff8211156129a6576129a5612ca8565b5b601f19601f8301169050602081019050919050565b600081519050919050565b600081519050919050565b600082825260208201905092915050565b600082825260208201905092915050565b600081905092915050565b6000612a0982612b23565b9150612a1483612b23565b9250827fffffffffffffffffffffffffffffffffffffffffffffffffffffffffffffffff03821115612a4957612a48612c1b565b5b828201905092915050565b6000612a5f82612b23565b9150612a6a83612b23565b925082612a7a57612a79612c4a565b5b828204905092915050565b6000612a9082612b23565b9150612a9b83612b23565b925082821015612aae57612aad612c1b565b5b828203905092915050565b6000612ac482612b03565b9050919050565b60008115159050919050565b60007fffffffff0000000000000000000000000000000000000000000000000000000082169050919050565b600073ffffffffffffffffffffffffffffffffffffffff82169050919050565b6000819050919050565b82818337600083830152505050565b60005b83811015612b5a578082015181840152602081019050612b3f565b83811115612b69576000848401525b50505050565b60006002820490506001821680612b8757607f821691505b60208210811415612b9b57612b9a612c79565b5b50919050565b6000612bac82612b23565b91507fffffffffffffffffffffffffffffffffffffffffffffffffffffffffffffffff821415612bdf57612bde612c1b565b5b600182019050919050565b6000612bf582612b23565b9150612c0083612b23565b925082612c1057612c0f612c4a565b5b828206905092915050565b7f4e487b7100000000000000000000000000000000000000000000000000000000600052601160045260246000fd5b7f4e487b7100000000000000000000000000000000000000000000000000000000600052601260045260246000fd5b7f4e487b7100000000000000000000000000000000000000000000000000000000600052602260045260246000fd5b7f4e487b7100000000000000000000000000000000000000000000000000000000600052604160045260246000fd5b6000601f19601f8301169050919050565b612cf181612ab9565b8114612cfc57600080fd5b50565b612d0881612acb565b8114612d1357600080fd5b50565b612d1f81612ad7565b8114612d2a57600080fd5b50565b612d3681612b23565b8114612d4157600080fd5b5056fe416e204e465420772f20494420257320686173206265656e206d696e74656420746f202573a264697066735822122039672bbba761ec64b91245dbf1956f9ec89eaa25267066eb128dd01653a5853f64736f6c63430008000033",
  "linkReferences": {},
  "deployedLinkReferences": {}
}